{
  "_format": "hh-sol-artifact-1",
  "contractName": "PriceConsumerV3",
  "sourceName": "contracts/PriceConsumerV3.sol",
  "abi": [
    {
      "inputs": [],
      "name": "updatePrice",
      "outputs": [],
      "stateMutability": "payable",
      "type": "function"
    }
  ],
  "bytecode": "0x608060405234801561001057600080fd5b50610118806100206000396000f3fe608060405260043610601c5760003560e01c8063673a7e28146021575b600080fd5b60276029565b005b600034116069576040517f08c379a0000000000000000000000000000000000000000000000000000000008152600401606090608a565b60405180910390fd5b565b60006076601f8360a8565b9150607f8260b9565b602082019050919050565b6000602082019050818103600083015260a181606b565b9050919050565b600082825260208201905092915050565b7f506c65617365207061792067726561746572207468616e20302065746865720060008201525056fea2646970667358221220bb820015e40ffe416e72bbecb474f93f18e149fe6984df98188b645adeef3bbc64736f6c63430008070033",
  "linkReferences": {},
  "deployedLinkReferences": {}
}